:100000000C9462000C948A000C948A000C948A0070
:100010000C948A000C948A000C948A000C948A0038
:100020000C948A000C948A000C948A000C948A0028
:100030000C948A000C948A000C948A000C948A0018
:100040000C94EF020C948A000C945F030C94390317
:100050000C948A000C948A000C948A000C948A00F8
:100060000C948A000C948A000000000023002600F3
:10007000290000000000240027002A0000000000E2
:10008000250028002B0004040404040404040202D4
:100090000202020203030303030301020408102007
:1000A0004080010204081020010204081020000012
:1000B0000008000201000003040700000000000027
:1000C0000000760411241FBECFEFD8E0DEBFCDBF05
:1000D00011E0A0E0B1E0E0E6F9E002C005900D9289
:1000E000A231B107D9F721E0A2E1B1E001C01D9230
:1000F000A83BB207E1F710E0C2E6D0E004C02197C8
:10010000FE010E94A304C136D107C9F70E949103E2
:100110000C94AE040C940000CF92DF92EF92FF9209
:100120000F931F93CF93DF936C017A018B01C0E093
:10013000D0E0CE15DF0589F0D8016D918D01D60193
:10014000ED91FC910190F081E02DC6010995892B7C
:1001500011F47E0102C02196ECCFC701DF91CF914F
:100160001F910F91FF90EF90DF90CF900895089529
:1001700080E090E00895FC01538D448D252F30E000
:10018000842F90E0821B930B541710F0CF960895A4
:1001900001970895FC01918D828D981761F0828DF1
:1001A000DF01A80FB11D5D968C91928D9F5F9F73AB
:1001B000928F90E008958FEF9FEF0895FC01918D4D
:1001C000828D981731F0828DE80FF11D858D90E0BA
:1001D00008958FEF9FEF0895FC01918D228D892F57
:1001E00090E0805C9F4F821B91098F73992708953F
:1001F00082E191E00E94EC0021E0892B09F420E0EB
:10020000822F0895FC01848DDF01A80FB11DA35A30
:10021000BF4F2C91848D90E001968F739927848F26
:10022000A689B7892C93A089B1898C9180648C931D
:10023000938D848D981306C00288F389E02D808108
:100240008F7D80830895EF92FF920F931F93CF933A
:10025000DF93EC0181E0888F9B8D8C8D981305C016
:10026000E889F989808185FD24C0F62E0B8D10E088
:100270000F5F1F4F0F731127E02E8C8DE8120CC0FB
:100280000FB607FCFACFE889F989808185FFF5CFA1
:10029000CE010E940201F1CF8B8DFE01E80FF11D0E
:1002A000E35AFF4FF0820B8FEA89FB8980818062DD
:1002B00007C0EE89FF896083E889F98980818064BD
:1002C000808381E090E0DF91CF911F910F91FF90AB
:1002D000EF900895CF93DF93EC01888D8823C9F0C8
:1002E000EA89FB89808185FD05C0A889B9898C913F
:1002F00086FD0FC00FB607FCF5CF808185FFF2CFDA
:10030000A889B9898C9185FFEDCFCE010E940201A9
:10031000E7CFDF91CF91089580E090E0892B29F01D
:100320000E94F80081110C9400000895833081F040
:1003300028F4813099F08230A1F008958730A9F037
:100340008830B9F08430D1F4809180008F7D03C073
:10035000809180008F7780938000089584B58F7797
:1003600002C084B58F7D84BD08958091B0008F77E1
:1003700003C08091B0008F7D8093B00008951F93DB
:10038000CF93DF93282F30E0F901E255FF4F84919E
:10039000F901E656FF4FD491F901EA57FF4FC49196
:1003A000CC23C9F0162F81110E949601EC2FF0E0AA
:1003B000EE0FFF1FE458FF4FA591B4918FB7F8944B
:1003C000111105C09C91ED2FE095E92302C0EC913D
:1003D000ED2BEC938FBFDF91CF911F910895CF93B9
:1003E000DF9390E0FC01E656FF4F2491FC01EA57B1
:1003F000FF4F8491882361F190E0880F991FFC01E1
:10040000EE58FF4FC591D491FC01E458FF4FA591E0
:10041000B491611109C09FB7F89488812095822317
:100420008883EC912E230BC0623061F49FB7F8945F
:100430003881822F809583238883EC912E2B2C93F7
:100440009FBF06C08FB7F894E8812E2B28838FBFFB
:10045000DF91CF910895EF92FF921F93CF93DF9397
:10046000162F682F8DE00E94BF01C5E061E08C2F40
:100470000E94EF01CF5FCD30C9F760E08EE00E94AF
:10048000BF0160E084E00E94BF01C0E0D0E0E12E47
:10049000F12C97018C2F0C2E02C0359527950A94CC
:1004A000E2F7B901617077278B5F0E94BF01219647
:1004B000C830D10571F761E084E00E94BF0161E0BE
:1004C0008EE00E94BF01812FDF91CF911F91FF909D
:1004D000EF900895EF92FF920F931F93CF93DF93C6
:1004E000682F8DE00E94BF01C5E060E08C2F0E9464
:1004F000EF0160E08C2F0E94BF01CF5FCD30A9F7E4
:1005000060E08EE00E94BF0160E083E00E94BF01D6
:10051000E12CF12C80E0C82FD0E0D595C79597014C
:100520002B5F3F4FF901E255FF4F8491F901E656E9
:10053000FF4F0491F901EA57FF4F1491112351F134
:1005400081110E949601E12FF0E0EE0FFF1FE859A4
:10055000FF4FA591B491EC91E023E1F080E890E0A9
:10056000C82BD92B8C2F9FEFE91AF90A98E0E916CE
:10057000F10489F661E083E00E94BF0161E08EE052
:100580000E94BF018C2FDF91CF911F910F91FF909F
:10059000EF90089580E090E0E3CFCF93DF931F9238
:1005A000CDB7DEB7682F82E191E069830E94BB007E
:1005B0006981892BC1F382E191E00F90DF91CF91A6
:1005C0000C94230182E191E00E94EC00892BD1F38D
:1005D00082E191E00E94CA0008950E94A9041F923E
:1005E0000F920FB60F9211242F933F938F939F93E7
:1005F000AF93BF938091B4019091B501A091B601E2
:10060000B091B7013091B30123E0230F2D3720F4CF
:100610000196A11DB11D05C026E8230F0296A11D5C
:10062000B11D2093B3018093B4019093B501A093C1
:10063000B601B093B7018091AF019091B001A09144
:10064000B101B091B2010196A11DB11D8093AF011E
:100650009093B001A093B101B093B201BF91AF915B
:100660009F918F913F912F910F900FBE0F901F90F0
:1006700018951F920F920FB60F9211242F933F934C
:100680004F935F936F937F938F939F93AF93BF939A
:10069000EF93FF9382E191E00E940201FF91EF91BD
:1006A000BF91AF919F918F917F916F915F914F918A
:1006B0003F912F910F900FBE0F901F9018951F9292
:1006C0000F920FB60F9211242F938F939F93EF9356
:1006D000FF93E0912201F09123018081E0912801B4
:1006E000F091290182FD12C0908180912B018F5FD2
:1006F0008F7320912C01821751F0E0912B01F0E0D3
:10070000EE5EFE4F958F80932B0101C08081FF919B
:10071000EF919F918F912F910F900FBE0F901F908F
:100720001895789484B5826084BD84B5816084BD59
:1007300085B5826085BD85B5816085BD80916E007F
:10074000816080936E0010928100809181008260B0
:1007500080938100809181008160809381008091ED
:1007600080008160809380008091B10084608093DC
:10077000B1008091B00081608093B00080917A00D8
:10078000846080937A0080917A00826080937A00FE
:1007900080917A00816080937A0080917A008068ED
:1007A00080937A001092C10061E083E00E94EF0123
:1007B00061E084E00E94EF0161E08EE00E94EF01C1
:1007C00061E08DE00E94EF0161E08EE00E94BF01D8
:1007D00061E083E00E94BF0161E084E00E94BF010C
:1007E000E0912201F091230182E08083E0911E01DB
:1007F000F0911F011082E0912001F091210180E130
:10080000808310922A01E0912601F091270186E071
:100810008083E0912401F0912501808180618083B3
:10082000E0912401F0912501808188608083E0912E
:100830002401F0912501808180688083E09124016A
:10084000F091250180818F7D808382E191E00E947B
:10085000EC00892B09F447C00E94E202833099F032
:1008600038F4813051F0823099F581E090E015C084
:10087000843089F08630B1F02BC00E94E202682FEC
:1008800081E090E005C00E94E202682F80E090E0E5
:100890000E942B0228C080E090E00E946A020E9421
:1008A000CD0221C00E94E202C82FD0E0209711F4AF
:1008B000C0E0D1E000E010E080E090E00E946A0239
:1008C0000E94CD020F5F1F4F0C171D07A9F70BC029
:1008D00082E191E00E94EC0097FD05C082E191E089
:1008E0000E94CA00F5CF0E948C01AFCFE2E1F1E097
:1008F0001382128288EE93E0A0E0B0E084839583B7
:10090000A683B78384E091E09183808385EC90E0B7
:100910009587848784EC90E09787868780EC90E0C9
:10092000918B808B81EC90E0938B828B82EC90E0BA
:10093000958B848B86EC90E0978B868B118E128E34
:10094000138E148E0895EE0FFF1F0590F491E02D85
:10095000099481E090E0F8940C94AE04F894FFCFF1
:100960000000000023018C00BB006A01EC00CA00FB
:02097000DE00A7
:107E0000112484B714BE81FFF0D085E080938100F7
:107E100082E08093C00088E18093C10086E0809377
:107E2000C20080E18093C4008EE0C9D0259A86E02C
:107E300020E33CEF91E0309385002093840096BBD3
:107E4000B09BFECF1D9AA8958150A9F7CC24DD24C4
:107E500088248394B5E0AB2EA1E19A2EF3E0BF2EE7
:107E6000A2D0813461F49FD0082FAFD0023811F036
:107E7000013811F484E001C083E08DD089C08234E0
:107E800011F484E103C0853419F485E0A6D080C0E4
:107E9000853579F488D0E82EFF2485D0082F10E0AE
:107EA000102F00270E291F29000F111F8ED06801E7
:107EB0006FC0863521F484E090D080E0DECF843638
:107EC00009F040C070D06FD0082F6DD080E0C81688
:107ED00080E7D80618F4F601B7BEE895C0E0D1E017
:107EE00062D089930C17E1F7F0E0CF16F0E7DF06D8
:107EF00018F0F601B7BEE89568D007B600FCFDCFD4
:107F0000A601A0E0B1E02C9130E011968C91119780
:107F100090E0982F8827822B932B1296FA010C0160
:107F200087BEE89511244E5F5F4FF1E0A038BF0790
:107F300051F7F601A7BEE89507B600FCFDCF97BE46
:107F4000E89526C08437B1F42ED02DD0F82E2BD052
:107F50003CD0F601EF2C8F010F5F1F4F84911BD097
:107F6000EA94F801C1F70894C11CD11CFA94CF0C13
:107F7000D11C0EC0853739F428D08EE10CD085E9AC
:107F80000AD08FE07ACF813511F488E018D01DD067
:107F900080E101D065CF982F8091C00085FFFCCF94
:107FA0009093C60008958091C00087FFFCCF809118
:107FB000C00084FD01C0A8958091C6000895E0E648
:107FC000F0E098E1908380830895EDDF803219F02E
:107FD00088E0F5DFFFCF84E1DECF1F93182FE3DFCA
:107FE0001150E9F7F2DF1F91089580E0E8DFEE27F6
:047FF000FF270994CA
:027FFE00040479
:0400000300007E007B
:00000001FF